:060000000A128A11C92F4B
:10000C00831203135C085B045A04590403190F2868
:10001C00102812288030DC060800831203136808AD
:10002C00F3006708F2006608F1006508F000403044
:10003C00F7000030F6000030F5000030F4000A1232
:10004C008A1543230A128A11031C2D282E286C288A
:10005C00831203136B08A0009630E9000030EA000D
:10006C009630EB000030EC000A128A1537210A1288
:10007C008A110A128A153E210A128A11831203135D
:10008C006B08F00001300A128A1562210A128A11DB
:10009C00831203136908F00002300A128A156221D8
:1000AC000A128A1183120313081D5D285E283A2850
:1000BC002008FC00FD017C08EB007D08EC0020080A
:1000CC00FC00FD017C08E9007D08EA0008008312B1
:1000DC0003132708B1008030B1052708A8002807B2
:1000EC00B800A61F7A287B287C28381438080319F6
:1000FC00802881289128380A031D852886288E2877
:10010C000030A7000030A6000030A5000030A4008D
:10011C00A617A70199280030A7000030A6000030D0
:10012C00A5000030A40023088039B1062308A800DC
:10013C002807B900A21FA328A428A5283914390818
:10014C000319A928AA28BA28390A031DAE28AF28F2
:10015C00B7280030A3000030A2000030A10000300E
:10016C00A000A217A301C2280030A3000030A200F7
:10017C000030A1000030A000230822042104200438
:10018C00031DC928CA28E1280030A7000030A600AA
:10019C000030A5000030A4008030A6047F30A704F6
:1001AC003108A7042708A3002608A2002508A100EF
:1001BC002408A000362A3808031DE528E628EF2875
:1001CC000030A3000030A2000030A1000030A000DD
:1001DC00362A3808A800A9012908AB0039082802DA
:1001EC00AA00031CAB032A087F3EB2002B0803189D
:1001FC00013E003EB3002708B0002608AF002508DA
:10020C00AE002408AD000030A7000030A60000307E
:10021C00A5000030A4000030B7000030B60000305C
:10022C00B5000030B400B9016329390803191F293E
:10023C00202940290130A8000310AD0DAE0DAF0DE3
:10024C00B00DA80B22290130A8000310A40DA50D98
:10025C00A60DA70DA80B2B29B71F35293629372931
:10026C0024140130A8000310B40DB50DB60DB70D54
:10027C00A80B392923083002031D4E2922082F020E
:10028C00031D4E2921082E02031D4E2920082D0284
:10029C00031C51295229612937172008AD02210866
:1002AC00031C210FAE022208031C220FAF022308ED
:1002BC00031C230FB0020130B9071A303902031C9A
:1002CC00682969291B2930082F042E042D040319D1
:1002DC00702971299029341490290130A800031039
:1002EC00A40DA50DA60DA70DA80B7529B71F7F2969
:1002FC008029812924140130A8000310B40DB50DF8
:10030C00B60DB70DA80B8329FF30B2070318B30A3B
:10031C00FF30B307A61F932994297329B901B71F7E
:10032C0098299929B529FF303405A800FF303505E7
:10033C00A900FF303605AA007F303705AB002B082B
:10034C002A04290428040319AC29AD29B029013049
:10035C00B900B529241CB329B429B529AD2939080C
:10036C000319B929BA29EB290130A4070030031865
:10037C000130A507003003180130A6070030031820
:10038C000130A707271CCB29CC29EB292408A8006E
:10039C002508A9002608AA002708AB000130AC00EC
:1003AC002B0DAB0CAA0CA90CA80CAC0BD6292B084A
:1003BC00A7002A08A6002908A5002808A4000130D7
:1003CC00B2070318B30A0030B3073308803AFF00B2
:1003DC0080307F02031DF429FF303202031CF72901
:1003EC00F829062AFF3083120313B2000030B30041
:1003FC000030A7000030A6000030A5000030A4009B
:10040C00831203133308803AFF0080307F02031DF0
:10041C00112A013032020318142A152A222A8312B7
:10042C000313B201B3010030A7000030A600003066
:10043C00A5000030A400B101831203133208B800E8
:10044C00381C292A2A2A2C2AA6172E2A7F30A605E0
:10045C003808A8000310280CA7003108A704D828D6
:10046C000800831203133808C5008030C50538080E
:10047C00BD003D07C700B71F442A452A462A47142A
:10048C00470803194A2A4B2A5B2A470A031D4F2A9D
:10049C00502A582A0030B8000030B7000030B6009F
:1004AC000030B500B717B801632A0030B80000302F
:1004BC00B7000030B6000030B5003C08C6008030F4
:1004CC00C6054608450603196C2A6D2A6E2A45177F
:1004DC003C08BD003D07C600BB1F752A762A772A4B
:1004EC004614460803197B2A7C2A8C2A460A031DCB
:1004FC00802A812A892A0030BC000030BB000030E1
:10050C00BA000030B900BB17BC01942A0030BC0003
:10051C000030BB000030BA000030B900470846027A
:10052C000318992A9A2ABE2A451F9D2A9E2AA02A78
:10053C008030C5064708C8004608C7004808C600F2
:10054C003508C8003908B5004808B9003608C80095
:10055C003A08B6004808BA003708C8003B08B7008C
:10056C004808BB003808C8003C08B8004808BC0064
:10057C00C8014608BD00BE013E08C00047083D0248
:10058C00BF00031CC0034008803AFF0080307F028C
:10059C00031DD22A1A303F02031CD52AD62A0B2B54
:1005AC00831203133808370436043504031DDF2A7D
:1005BC00E12A0130E22A0030C8000030B8000030D7
:1005CC00B7000030B6000030B5004608C700132B4A
:1005DC00481CF12AF22AF92A4808BD0003103D0CE8
:1005EC000138C800FB2A0310C80C351CFE2AFF2A50
:1005FC00002BC8170130BD00380DB80CB70CB60C69
:10060C00B50CBD0B022B0130C70783120313460830
:10061C004702031C122B132BEE2A451B162B172BF0
:10062C005E2B4708031D1B2B1C2B252B0030B80001
:10063C000030B7000030B6000030B500862C390809
:10064C00B5073A0803110318013E03192E2BB60700
:10065C003B0803110318013E0319352BB7073C085F
:10066C0003110318013E03193C2BB807381C3F2B10
:10067C00402B122C481C432B442B4B2B4808BD0001
:10068C0003103D0C0138C8004D2B0310C80C351C51
:10069C00502B512B522BC8170130BD00380DB80C04
:1006AC00B70CB60CB50CBD0B542B0130C707122C74
:1006BC003808803AFF003C08803A7F02031D702BFB
:1006CC003B083702031D702B3A083602031D702BB2
:1006DC00390835020318732B742BCB2BFF30BD005C
:1006EC00FF30BE00FF30BF00FF30C0003908C10032
:1006FC003A08C2003B08C3003C08C4003508C102DC
:10070C003608031C360F8B2B8C2BC2023708031CAC
:10071C00370F912B922BC3023808031C380F972BE1
:10072C00982BC4024108BD0742080318420F9F2BA7
:10073C00A02BBE0743080318430FA52BA62BBF07FE
:10074C0044080318440AC0074008B8003F08B70023
:10075C003E08B6003D08B5008030C5064803FF3A98
:10076C00C8004808031DBB2BBC2BD92B0130B50787
:10077C00003003180130B607003003180130B707FA
:10078C00003003180130B807D92B3908B5023A08E4
:10079C00031C3A0FB6023B08031C3B0FB7023C0884
:1007AC00031C3C0FB8023808370436043504031D0B
:1007BC00E02BE12B0E2C4808031DE52BE62B0E2C11
:1007CC000030B8000030B7000030B6000030B50083
:1007DC00862C0130BD000310B50DB60DB70DB80D4C
:1007EC00BD0BF12BC81FFB2BFC2BFD2B3514481C10
:1007FC00002C012C052C0314480DC800072C0310E9
:10080C00C80D470803190B2C0C2C0E2C0130C702F9
:10081C00B71F112C122CEF2BC601C81F162C172C2E
:10082C00252C48087F3903191C2C1D2C202C013039
:10083C00C600252C351C232C242C252C1D2C4608BD
:10084C000319292C2A2C5C2C0130B5070030031815
:10085C000130B607003003180130B7070030031819
:10086C000130B807381C3B2C3C2C5C2C3508BD00E7
:10087C003608BE003708BF003808C0000130C10080
:10088C00400DC00CBF0CBE0CBD0CC10B462C40085F
:10089C00B8003F08B7003E08B6003D08B500470A4F
:1008AC000319592C5A2C5C2C0130C707470A031921
:1008BC00602C612C662C4708031D652C662C742C4F
:1008CC000030B8000030B7000030B6000030B50082
:1008DC004708031D722C732C742CC501471C772CF4
:1008EC00782C7A2CB7177C2C7F30B7054708BD00C5
:1008FC0003103D0CB800C51F842C852C862CB81712
:10090C000800831203132308A8008030A8052308CD
:10091C00F9007907AE00A21F942C952C962C2E145E
:10092C002E0803199A2C9B2CAA2C2E0A031D9F2CE3
:10093C00A02CA82C0030A3000030A2000030A10095
:10094C000030A000A217B22C0030A3000030A2008F
:10095C000030A1000030A00027088039A806270825
:10096C00F9007907AD00A61FBC2CBD2CBE2C2D1494
:10097C002D080319C22CC32CD22C2D0A031DC72CF5
:10098C00C82CD02C0030A7000030A6000030A500E9
:10099C000030A400A617DA2C0030A7000030A60007
:1009AC000030A5000030A4002D080319DE2CDF2C2C
:1009BC00E42C2E08031DE32CE42CED2C0030A300BA
:1009CC000030A2000030A1000030A000C82F200889
:1009DC00F00026080A128A15BF210A128A11710822
:1009EC0083120313B4007008B3003308F900FA0142
:1009FC00FB01FC017C08AC007B08AB007A08AA0068
:100A0C007908A9003408F900FA01FB01FC017C0803
:100A1C00B2007B08B1007A08B0007908AF00210859
:100A2C00F00025080A128A15BF210A128A117108D2
:100A3C0083120313B4007008B3003308F900FA01F1
:100A4C00FB01FC017908A9077A0803110318013E80
:100A5C000319312DAA077B0803110318013E031952
:100A6C00382DAB077C0803110318013E03193F2DE9
:100A7C00AC073408F900FA01FB01FC017908AF0757
:100A8C007A0803110318013E03194D2DB0077B089A
:100A9C0003110318013E0319542DB1077C080311EF
:100AAC000318013E03195B2DB2072208F00024083D
:100ABC000A128A15BF210A128A11710883120313B4
:100ACC00B4007008B3003308F900FA01FB01FC0113
:100ADC007908A9077A0803110318013E0319772D29
:100AEC00AA077B0803110318013E03197E2DAB07DF
:100AFC007C0803110318013E0319852DAC0734083B
:100B0C00F900FA01FB01FC017908AF077A0803111F
:100B1C000318013E0319932DB0077B08031103182A
:100B2C00013E03199A2DB1077C0803110318013EED
:100B3C000319A12DB2070830F9000310A90DAA0D55
:100B4C00AB0DAC0DF90BA32D2108F00024080A12F3
:100B5C008A15BF210A128A11710883120313B4007B
:100B6C007008B3003308F9003408FA00FB01FC01EB
:100B7C007908A9077A0803110318013E0319C72D38
:100B8C00AA077B0803110318013E0319CE2DAB07EE
:100B9C007C0803110318013E0319D52DAC0720085E
:100BAC00F00025080A128A15BF210A128A11710851
:100BBC0083120313B4007008B3003308F90034082F
:100BCC00FA00FB01FC017908A9077A080311031844
:100BDC00013E0319F22DAA077B0803110318013EED
:100BEC000319F92DAB077C0803110318013E0319F7
:100BFC00002EAC070830F9000310A90DAA0DAB0D9F
:100C0C00AC0DF90B022E2008F00024080A128A15EC
:100C1C00BF210A128A11710883120313B4007008E1
:100C2C00B3003308F9003408FA00FB01FC01790821
:100C3C00A9077A0803110318013E0319262EAA07E7
:100C4C007B0803110318013E03192D2EAB077C08FA
:100C5C0003110318013E0319342EAC072108F000D0
:100C6C0026080A128A15BF210A128A1171088312EA
:100C7C000313B4007008B3003308F9003408FA0009
:100C8C00FB01FC017908AF077A0803110318013E38
:100C9C000319512EB0077B0803110318013E0319E9
:100CAC00582EB1077C0803110318013E03195F2E5F
:100CBC00B2072208F00025080A128A15BF210A1271
:100CCC008A11710883120313B4007008B30033083F
:100CDC00F9003408FA00FB01FC017908AF077A0827
:100CEC0003110318013E03197C2EB0077B08031176
:100CFC000318013E0319832EB1077C080311031856
:100D0C00013E03198A2EB2072208F00026080A12A7
:100D1C008A15BF210A128A11710883120313B400B9
:100D2C007008B3003308F9003408FA00FB01FC0129
:100D3C0008300310F90DFA0DFB0DFC0DFF3E031DE1
:100D4C009F2E7908AF077A0803110318013E031987
:100D5C00B02EB0077B0803110318013E0319B72E00
:100D6C00B1077C0803110318013E0319BE2EB2070C
:100D7C002908F9002A08FA002B08FB002C08FC00B3
:100D8C0018300310FC0CFB0CFA0CF90CFF3E031D85
:100D9C00C72E7908AF077A0803110318013E03190F
:100DAC00D82EB0077B0803110318013E0319DF2E60
:100DBC00B1077C0803110318013E0319E62EB20794
:100DCC000830F9000310A90DAA0DAB0DAC0DF90BF1
:100DDC00E82E2E082D07F900FA01FA0D7908823E4B
:100DEC00B3007A080318013EFF3EB4001A2F0130FD
:100DFC00F9000310AF0DB00DB10DB20DF90BFF2EB4
:100E0C00AC1F092F0A2F0B2F2F140130F9000310E0
:100E1C00A90DAA0DAB0DAC0DF90B0D2FFF30B307BF
:100E2C000318B40AFF30B407B11F1D2F1E2FFD2E5F
:100E3C00AD01AC1F222F232F3F2FFF302905F900C6
:100E4C00FF302A05FA00FF302B05FB007F302C0504
:100E5C00FC007C087B047A0479040319362F372FA5
:100E6C003A2F0130AD003F2F2F1C3D2F3E2F3F2F2F
:100E7C00372F2D080319432F442F752F0130AF073F
:100E8C00003003180130B007003003180130B107EF
:100E9C00003003180130B207321C552F562F752F16
:100EAC002F08F9003008FA003108FB003208FC006A
:100EBC000130FD007C0DFC0CFB0CFA0CF90CFD0B4D
:100ECC00602F7C08B2007B08B1007A08B00079086A
:100EDC00AF000130B3070318B40A0030B40734086C
:100EEC00803AFF0080307F02031D7E2FFF303302DB
:100EFC00031C812F822F8D2F7F3083120313B2009E
:100F0C008030B1000030B0000030AF00BE2F831233
:100F1C0003133408803AFF0080307F02031D982FA2
:100F2C000130330203189B2F9C2FA82F0030831203
:100F3C000313B2000030B1000030B0000030AF003D
:100F4C00A801BE2F831203133308AE00FF30AF0588
:100F5C00FF30B0057F30B1050030B2052E1CB72F25
:100F6C00B82FB92FB1172E08F9000310790CB20065
:100F7C002808B2043208A3003108A2003008A100EE
:100F8C002F08A00008008313B630FD000930FE00C6
:100F9C004530FF00AC3084000A128A1553210A1226
:100FAC008A116D30FD000930FE002530FF006930DC
:100FBC0084000A128A1553210A128A11831603130C
:100FCC00A001A101A201A301A401A501A601A701F1
:100FDC00A801A901AA01AB0183120313E101E201EB
:100FEC00E301E401E501E601E701E80183010A12EE
:040FFC008A15E52B42
:10124A00643400346434003483120313071287129F
:10125A000717871708008312031305108510051551
:10126A0085150800831203130716871607138713B9
:10127A00080083120313051485140511851108004B
:10128A00FE34FF34FF34FF340034003401340034B8
:10129A00023400347E088A007F0882000A128A1506
:1012AA004F210A128A158000840A04087D06031950
:1012BA000034FF0A0319FE0A5329F10002307106AD
:1012CA00031D682969296D29700883120313950083
:1012DA007103031D71297229762970088312031379
:1012EA009B000800803083120313CC065008B80014
:1012FA004F08B7004E08B6004D08B5004C08BC00B0
:10130A004B08BB004A08BA004908B9000A128A11F8
:10131A0037220A128A15831203133808CC003708B9
:10132A00CB003608CA003508C9000800F1000230AF
:10133A007106031DA129A229A929831603130711DE
:10134A000C308312031397007103031DAD29AE29D4
:10135A00B5290C30831203139D00831603138710DB
:10136A0070088316031392008312031392019101EA
:10137A0012150800F800F401F5017008F200F301F3
:10138A007208F6007308F700781CCC29CD29D329F6
:10139A007608F4070318F50A7708F50701300310F1
:1013AA00F60DF70DFF3E031DD4290310F80C78083B
:1013BA00031DE029E129C9297508F1007408F00024
:1013CA000800C030F3000030F2000030F1000030B5
:1013DA00F000831203136808F7006708F60066082E
:1013EA00F5006508F4000A128A1543230A128A15C1
:1013FA00031C002A012A3F2A831203136B08A00048
:10140A009630E9000030EA009630EB000030EC003C
:10141A000A128A1529210A128A150A128A153021F6
:10142A000A128A15831203136B08F00001300A129C
:10143A008A1562210A128A15831203136908F000B9
:10144A0002300A128A1562210A128A1583120313BC
:10145A00081D302A312A0D2A2008FC00FD017C08CB
:10146A00EB007D08EC002008FC00FD017C08E90087
:10147A007D08EA000800031083120313530D540D6C
:10148A00DA005A08031D4A2A4B2A542A0030D4008B
:10149A000030D3000030D2000030D100B52A510804
:1014AA00D5005208D6005308D7005408D8001F3078
:1014BA000310D80CD70CD60CD50CFF3E031D5D2AA1
:1014CA005508D900D317FF30D105FF30D205FF30B8
:1014DA00D3050030D4059630DA02DA1F752A762A47
:1014EA008E2A5A08803A973E03187C2A7D2A7E2A39
:1014FA004B2A01300310D40CD30CD20CD10CFF3E72
:10150A00031D7F2A0130DA07031D8C2A8D2A7E2AC1
:10151A00A52A20305A02031C932A942AA02A4B2A6D
:10152A000130D5000310D10DD20DD30DD40DD50B3A
:10153A00972A0130DA025A08031DA42AA52A952AF5
:10154A0059080319A92AAA2AB52AD109D209D309FD
:10155A00D409D10A0319D20A0319D30A0319D40ADE
:10156A000800423083120313D000C830CF00003085
:10157A00CE000030CD005E08CC005D08CB005C08D0
:10158A00CA005B08C9000A128A1577210A128A154D
:10159A00831203134C08D4004B08D3004A08D20024
:1015AA004908D1000A128A1540220A128A158312A2
:1015BA0003135208EC005108EB005E08BC005D08FA
:1015CA00BB005C08BA005B08B9004230B800C830FA
:1015DA00B7000030B6000030B5000A128A1137226F
:1015EA000A128A15831203133808D4003708D30065
:1015FA003608D2003508D1000A128A1540220A128A
:10160A008A15831203135208EA005108E9006C088C
:10161A00803AFF0080307F02031D152BC9306B0210
:10162A00031C182B192B1F2BC83083120313EB0032
:10163A000030EC0083120313EC1F242B252B272BDD
:10164A00EB01EC016A08803AFF0080307F02031D3B
:10165A00302BC9306902031C332B342B3A2BC83088
:10166A0083120313E9000030EA0083120313EA1F0E
:10167A003F2B402B422BE901EA010800003070059C
:10168A00F80000307105F90080307205FA007F30E9
:10169A007305FB007B087A0479047804031D562B32
:1016AA00572B5F2B0030F3000030F2000030F100BE
:1016BA000030F00000307405F80000307505F900BC
:1016CA0080307605FA007F307705FB007B087A04C4
:1016DA0079047804031D722B732B7B2B0030F700DF
:1016EA000030F6000030F5000030F400F31F7E2BC6
:1016FA007F2BA32B0030F8000030F9000030FA00ED
:10170A008030FB007008F8027108031C710F8E2BE1
:10171A008F2BF9027208031C720F942B952BFA0275
:10172A007308031C730F9A2B9B2BFB027B08F30095
:10173A007A08F2007908F1007808F000F71FA62B62
:10174A00A72BCB2B0030F8000030F9000030FA004C
:10175A008030FB007408F8027508031C750FB62B5D
:10176A00B72BF9027608031C760FBC2BBD2BFA02A5
:10177A007708031C770FC22BC32BFB027B08F700E9
:10178A007A08F6007908F5007808F4008030F30644
:10179A008030F70677087302031DDD2B7608720284
:1017AA00031DDD2B75087102031DDD2B7408700201
:1017BA000318E02BE12BE32B0310E42B031408009E
:1017CA0083160317880189013F30831603138800A3
:1017DA0083120313870183160313870183120313EA
:1017EA008501831603138501FF30F00001300A12C8
:1017FA008A159B210A128A15FF30F00002300A125C
:10180A008A159B210A128A150A128A1537210A1289
:10181A008A150A128A1530210A128A150A128A159D
:10182A004A250A128A15831203133D08E8003C0868
:10183A00E7003B08E6003A08E5000A128A1113207D
:10184A000A128A150A128A15E6210A128A150A123A
:10185A008A153E260A128A15831203135408DC00DD
:10186A005308DB005208DA005108D9000A128A111B
:10187A0006200A128A15831203135C0883160313BF
:10188A00A300831203135B0883160313A2008312B7
:10189A0003135A0883160313A1008312031359086A
:1018AA0083160313A000230883120313DE00831692
:1018BA000313220883120313DD008316031321087E
:1018CA0083120313DC008316031320088312031305
:1018DA00DB000A128A15B6220A128A15831203132A
:1018EA006B08F00001300A128A1562210A128A1561
:1018FA00831203136908F00002300A128A15622162
:10190A000A128A15213083120313E0007530DF00B2
:10191A00DF0B8D2CE00B8D2C922C092C0A128A11CC
:10192A000028F800780803199B2C9C2CB02CF31F74
:10193A009F2CA02CB02C7009FA007109FB007209C7
:10194A00FC007309FD00FA0A0319FB0A0319FC0AD1
:10195A000319FD0AB82C7308FD007208FC0071080F
:10196A00FB007008FA007308720471047004031D06
:10197A00BF2CC02CC92C0030F3000030F20000301C
:10198A00F1000030F000492D9630F900D72C0130D3
:10199A00F90701300310FD0CFC0CFB0CFA0CFF3E9E
:1019AA00031DCF2CFE307D05031DDC2CDD2CCC2C39
:1019BA00F72C0130F9070130FA070030031801301B
:1019CA00FB07003003180130FC0700300318013010
:1019DA00FD0701300310FD0CFC0CFB0CFA0CFF3E5A
:1019EA00031DEF2CFF307D05031DFC2CFD2CDE2C86
:1019FA00092D0130F9020130F4000310FA0DFB0D34
:101A0A00FC0DFD0DF40B022DFC1B0C2D0D2D132DC1
:101A1A00023079020318122D132DFE2C7918162D77
:101A2A00172D1F2DFF30FA05FF30FB057F30FC050F
:101A3A00FF30FD050310F90C7908F400F501F601F1
:101A4A00F70118300310F40DF50DF60DF70DFF3EF2
:101A5A00031D272D7408FA047508FB047608FC0494
:101A6A007708FD04780803193B2D3C2D412DF31FFF
:101A7A003F2D402D412DFD177D08F3007C08F20013
:101A8A007B08F1007A08F000080083120313C301EF
:101A9A00C401C101C201C501C60101308312031389
:101AAA00BE00450A5A2D0310BE0DFF3E031D582DD8
:101ABA003E0808050319622D632D7A2D4508BE00DC
:101ACA003E07AC3E840083130008BF00840A000866
:101ADA00C0003F08C1070318C20A4008C207013004
:101AEA00C3070318C40A0030C4070130C507031826
:101AFA00C60A0030C6074608803AFF0080307F02D7
:101B0A00031D892D05304502031C8C2D8D2D522D68
:101B1A00831203134408803AFF0080307F02031DBA
:101B2A00982D01304302031C9B2D9C2DEA2D831214
:101B3A0003134308F0004408F1000030F11BFF30A2
:101B4A00F200F30001300A128A1596240A128A1545
:101B5A00730883120313A3007208A2007108A1007C
:101B6A007008A0004108F0004208F1000030F11BA3
:101B7A00FF30F200F30001300A128A1596240A1285
:101B8A008A15730883120313A7007208A600710846
:101B9A00A5007008A4000A128A116D200A128A157B
:101BAA00831203132308E8002208E7002108E6004D
:101BBA002008E500831203136808BD006708BC000B
:101BCA006608BB006508BA003D2E8312031343085A
:101BDA004404031DF12DF22D3D2E0030F300003098
:101BEA00F2000030F1000030F000831603132B08D6
:101BFA00F7002A08F6002908F5002808F4000A1256
:101C0A008A1543230A128A1503180C2E0D2E172E35
:101C1A00403083120313E8002030E7000030E6006A
:101C2A000030E500831603132B08F3002A08F2009C
:101C3A002908F1002808F0000030F7000030F6000B
:101C4A000030F5000030F4000A128A1543230A1204
:101C5A008A150318312E322EDF2DC030831203135A
:101C6A00E8002030E7000030E6000030E500DF2D14
:101C7A000800831203136808B8006708B7006608EB
:101C8A00B6006508B5006408BC006308BB006208BA
:101C9A00BA006108B9000A128A1137220A128A1593
:101CAA00831203133808E4003708E3003608E20019
:101CBA003508E1004230F300C830F2000030F1008C
:101CCA000030F0006408F7006308F6006208F500C7
:101CDA006108F4000A128A1543230A128A150318A6
:101CEA00772E782E822E423083120313E400C830F6
:101CFA00E3000030E2000030E100831203136408BD
:101D0A00F3006308F2006208F1006108F000C230D3
:101D1A00F700C830F6000030F5000030F4000A126F
:101D2A008A1543230A128A1503189C2E9D2EA72E64
:101D3A00C23083120313E400C830E3000030E2002B
:101D4A000030E100831603132B0883120313CC001F
:101D5A00831603132A0883120313CB008316031373
:101D6A00290883120313CA0083160313280883124F
:101D7A000313C9006808D0006708CF006608CE00C0
:101D8A006508CD000A128A1577210A128A1583126C
:101D9A0003134C0883160313A700831203134B087B
:101DAA0083160313A600831203134A088316031328
:101DBA00A50083120313490883160313A400831290
:101DCA000313680883160313AB008312031367080F
:101DDA0083160313AA0083120313660883160313D8
:101DEA00A90083120313650883160313A8000030A1
:101DFA0083120313A3000030A2000030A1000030B8
:101E0A00A0006408A7006308A6006208A50061088C
:101E1A00A4000A128A1187240A128A15831203134C
:101E2A002308B8002208B7002108B6002008B50028
:101E3A004130A300B030A2000030A1000030A00061
:101E4A006808A7006708A6006608A5006508A40038
:101E5A000A128A1187240A128A1583120313230885
:101E6A00BC002208BB002108BA002008B9000A12E7
:101E7A008A1137220A128A15831203133808D800E6
:101E8A003708D7003608D6003508D5004030A300F9
:101E9A00C030A2000030A1000030A0008316031356
:101EAA00270883120313A700831603132608831235
:101EBA000313A60083160313250883120313A50030
:101ECA0083160313240883120313A4000A128A1127
:101EDA0087240A128A15831203132308B8002208DA
:101EEA00B7002108B6002008B5005808BC005708FA
:101EFA00BB005608BA005508B9000A128A113722DF
:101F0A000A128A1583120313380883160313A300CF
:101F1A0083120313370883160313A20083120313D1
:101F2A00360883160313A100831203133508831698
:101F3A000313A0004230F300C830F2000030F10071
:101F4A000030F0002308F7002208F6002108F50007
:101F5A002008F4000A128A1543230A128A15031864
:101F6A00B72FB82FC22F423083160313A300C830ED
:101F7A00A2000030A1000030A0008316031323083A
:101F8A00F3002208F2002108F1002008F000C23014
:101F9A00F700C830F6000030F5000030F4000A12ED
:101FAA008A1543230A128A150318DC2FDD2FE72F1F
:101FBA00C23083160313A300C830A2000030A10068
:101FCA000030A00083160313230883120313D400DE
:101FDA0083160313220883120313D30083160313F1
:101FEA00210883120313D2008316031320088312D5
:061FFA000313D1000800F2
:04400E00222FFF3F1F
:00000001FF
